S01B00004C45442D4932432D536C617665203220432B2B2E7372656316
S11300000C942B000C9453000C9453000C94530048
S11300100C9453000C9453000C9453000C94530010
S11300200C9453000C9453000C9453000C94530000
S11300300C9453000C9453000C9453000C945300F0
S11300400C9453000C9453000C9453000C946E00C5
S11300500C945300690611241FBECFE5D8E0DEBF1F
S1130060CDBF10E0A0E6B0E0EAE0FDE002C00590FC
S11300700D92AA39B107D9F720E0AAE9B0E001C08E
S11300801D92A83BB207E1F710E0CBE2D0E004C038
S11300902197FE010E947D06CA32D107C9F70E944A
S11300A0C5050C9483060C94000080939D00109267
S11300B09B0010929A00089586B380939C008091CF
S11300C09C0083B910929B0010929A000895F894B2
S11300D0880F82B985EC86BF789408951F920F9299
S11300E00FB60F9211242F933F934F935F936F9307
S11300F07F938F939F93AF93BF93EF93FF9381B1BC
S1130100887F803849F018F48823F9F022C0883AAF
S113011061F0883B91F01DC083B1E091B600F0918D
S1130120B700099585EC86BF16C0E091B400F09144
S1130130B500099585EC86BF0EC0E091B400F0913E
S1130140B500099585EC86BF06C016BE85EC86BF52
S113015002C085EC86BFFF91EF91BF91AF919F9153
S11301608F917F916F915F914F913F912F910F905C
S11301700FBE0F901F901895FC019BE190838AE1BC
S1130180818312829383848321E0258396838783EA
S113019022E020879187828723E0238794878587BD
S11301A024E026879787808B25E0218B928B838B95
S11301B086E0848B08958F929F92AF92BF92CF92E4
S11301C0DF92EF92FF920F931F93CF93DF93FC0183
S11301D0822F90E04C0195948794EC01D595C795B6
S11301E0D595C7958C011595079515950795159582
S11301F007957C01F594E794F594E794F594E794D6
S1130200F594E7946C01D594C794D594C794D59488
S1130210C794D594C794D594C7945C010A2CAB2C8D
S1130220000CAA1CBB08000CAA1CBB1C880F892F3D
S1130230881F990B60FF11C0A081B0E090963C919B
S1130240909761E070E0028002C0660F771F0A9405
S1130250E2F7632B90966C9311C0A081B0E0909666
S11302603C91909761E070E0028002C0660F771FB6
S11302700A94E2F76095632390966C9340FF11C053
S1130280A381B0E090963C91909741E050E00580C6
S113029002C0440F551F0A94E2F7432B90964C93E7
S11302A011C0A381B0E090963C91909741E050E05A
S11302B0058002C0440F551F0A94E2F7409543237A
S11302C090964C9380FF11C0A289B0E090963C9127
S11302D0909781E090E0048802C0880F991F0A94E7
S11302E0E2F7832B90968C9311C0A289B0E090968C
S11302F03C91909781E090E0048802C0880F991F98
S11303000A94E2F78095832390968C93A0FE11C003
S1130310A785B0E090963C91909781E090E00188A9
S113032002C0880F991F0A94E2F7832B90968C934E
S113033011C0A785B0E090963C91909781E090E041
S1130340018802C0880F991F0A94E2F780958323DD
S113035090968C93C0FE11C0A485B0E090963C9119
S1130360909781E090E0068402C0880F991F0A9458
S1130370E2F7832B90968C9311C0A485B0E09096FD
S11303803C91909781E090E0068402C0880F991F09
S11303900A94E2F78095832390968C93E0FE11C033
S11303A0A185B0E090963C91909781E090E0038421
S11303B002C0880F991F0A94E2F7832B90968C93BE
S11303C011C0A185B0E090963C91909781E090E0B7
S11303D0038402C0880F991F0A94E2F7809583234F
S11303E090968C93A681B0E090963C91909781E092
S11303F090E0AC01008402C0440F551F0A94E2F758
S1130400432B90964C93AFECB7E01197F1F700C0F3
S11304100000A681B0E090963C919097008402C0C1
S1130420880F991F0A94E2F78095832390968C9302
S11304308FEC97E00197F1F700C0000000FF11C0B6
S1130440A289B0E090963C91909781E090E0048876
S113045002C0880F991F0A94E2F7832B90968C931D
S113046011C0A289B0E090963C91909781E090E011
S1130470048802C0880F991F0A94E2F780958323A9
S113048090968C93C0FF11C0A785B0E090963C91E4
S1130490909781E090E0018802C0880F991F0A9428
S11304A0E2F7832B90968C9311C0A785B0E09096C9
S11304B03C91909781E090E0018802C0880F991FD9
S11304C00A94E2F78095832390968C9380FE11C062
S11304D0A485B0E090963C91909781E090E00684EA
S11304E002C0880F991F0A94E2F7832B90968C938D
S11304F011C0A485B0E090963C91909781E090E083
S1130500068402C0880F991F0A94E2F7809583231A
S113051090968C9320FF11C0A185B0E090962C9109
S1130520909781E090E0038402C0880F991F0A9499
S1130530E2F7822B90968C9311C0A185B0E090963F
S11305402C91909781E090E0038402C0880F991F5A
S11305500A94E2F78095822390968C93A681B0E06A
S113056090964C91909781E090E09C01008402C0A9
S1130570220F331F0A94E2F7242B90962C93AFECAE
S1130580B7E01197F1F700C00000A681B0E09096A3
S11305903C919097AC01008402C0440F551F0A940B
S11305A0E2F7242F2095232390962C93AFECB7E009
S11305B01197F1F700C00000A081B0E090963C9143
S11305C09097AC01028002C0440F551F0A94E2F7D1
S11305D0242F2095232390962C93A381B0E090960A
S11305E03C919097AC01058002C0440F551F0A94BA
S11305F0E2F7242F2095232390962C93A289B0E030
S113060090963C919097AC01048802C0440F551F0A
S11306100A94E2F7242F2095232390962C93A78500
S1130620B0E090963C919097AC01018802C0440FD1
S1130630551F0A94E2F7242F2095232390962C9398
S1130640A485B0E090963C919097AC01068402C0DA
S1130650440F551F0A94E2F7242F209523239096E4
S11306602C93A185B0E090962C919097038402C0BE
S1130670880F991F0A94E2F78095822390968C93B1
S1130680DF91CF911F910F91FF90EF90DF90CF906A
S1130690BF90AF909F908F900895CF93DF93EC011C
S11306A08FE295E70197F1F700C00000E985F0E0DB
S11306B030A181E090E0AC010B8402C0440F551FCF
S11306C00A94E2F7242F2095232320A3EC85F0E05D
S11306D030A1AC010E8402C0440F551F0A94E2F706
S11306E0242F2095232320A3EF85F0E030A1AC0133
S11306F0098802C0440F551F0A94E2F7242F20955D
S1130700232320A3EA89F0E030A1AC010C8802C0C5
S1130710440F551F0A94E2F7242F2095232320A386
S1130720EE81F0E030A1AC01088402C0440F551FF3
S11307300A94E2F7242F2095232320A3EA85F0E0EE
S113074040A19C010B8402C0220F331F0A94E2F7DC
S1130750242B20A3ED85F0E040A19C010E8402C06F
S1130760220F331F0A94E2F7242B20A3E889F0E038
S113077040A19C01098802C0220F331F0A94E2F7AA
S1130780242B20A3EB89F0E040A19C010C8802C03B
S1130790220F331F0A94E2F7242B20A3EF81F0E009
S11307A040A19C01088402C0220F331F0A94E2F77F
S11307B0242B20A3E981F0E040A19C010A8002C01F
S11307C0220F331F0A94E2F7242B20A3EC81F0E0DC
S11307D040A19C010D8002C0220F331F0A94E2F74E
S11307E0242B20A3E881F0E030A1AC010A8002C0F0
S11307F0440F551F0A94E2F7242F2095232320A3A6
S1130800EB81F0E030A1AC010D8002C0440F551F14
S11308100A94E2F7242F2095232320A3EA89F0E009
S113082030A1AC010C8802C0440F551F0A94E2F7B2
S1130830242F2095232320A3EF85F0E030A1AC01E1
S1130840098802C0440F551F0A94E2F7242F20950B
S1130850232320A3EC85F0E040A19C010E8402C078
S1130860220F331F0A94E2F7242B20A3E985F0E03A
S113087030A1AC010B8402C0440F551F0A94E2F767
S1130880242F2095232320A3EE81F0E040A19C0196
S1130890088402C0220F331F0A94E2F7242B20A3FA
S11308A0EFECF7E03197F1F700C00000EE81F0E0E3
S11308B020A1088402C0880F991F0A94E2F780954A
S11308C0822380A38FEC97E00197F1F700C000002A
S11308D028E240E060E0CE010E94DB00EFECF7E0AC
S11308E03197F1F700C000002CE040E060E0CE0159
S11308F00E94DB008FEC97E00197F1F700C0000045
S113090026E040E060E0CE010E94DB00EFECF7E07F
S11309103197F1F700C00000DF91CF910895262FA1
S113092040E061E00E94DB0008950F931F93CF9392
S1130930DF93EB016881662341F08C012196C801A5
S11309400E948F0469916111FACFDF91CF911F91B9
S11309500F9108958F929F92AF92BF92CF92DF92A0
S1130960EF92FF920F931F93CF93DF935C01EB0100
S11309709B01329522952F7023273F702327A7E4EC
S1130980B3E00E946E068C0116950795169507959F
S11309901695079520E137E2029FC001039F900D51
S11309A0129F900D1124C81BD90B9E0136952795D3
S11309B03695279536952795A5ECB0E20E946E06EC
S11309C06C01D694C794D694C794D694C794D694FD
S11309D0C79428EE33E0C29EC001C39E900DD29E00
S11309E0900D1124C81BD90B9E0136952795369579
S11309F02795ABE7B4E10E946E064C019694879468
S1130A0024E6289DC001299D900D1124C81BD90BF3
S1130A109E01ADECBCEC0E946E067C01F694E7945A
S1130A20F694E794F694E7949701220F331FC701D5
S1130A30880F991F880F991F880F991F820F931F82
S1130A40C81BD90B0115110591F4C114D10479F413
S1130A508114910409F047C0E114F10409F056C06F
S1130A602097D9F560E3C5010E948F0459C0011590
S1130A701105C9F4C114D10409F452C060E36C0D2A
S1130A80C5010E948F0460E3680DC5010E948F04B4
S1130A9060E36E0DC5010E948F046C2F605DC5017B
S1130AA00E948F043DC060E3600FC5010E948F0463
S1130AB060E36C0DC5010E948F0460E3680DC501FD
S1130AC00E948F0460E36E0DC5010E948F046C2F99
S1130AD0605DC5010E948F0423C06C2F605DC50159
S1130AE00E948F041DC060E3680DC5010E948F043D
S1130AF060E36E0DC5010E948F046C2F605DC5011B
S1130B000E948F040115110559F0CDCF60E36E0DDD
S1130B10C5010E948F046C2F605DC5010E948F0483
S1130B20DF91CF911F910F91FF90EF90DF90CF90C5
S1130B30BF90AF909F908F90089521E040E060E0D7
S1130B400E94DB0008954130510511F4605C7F4F31
S1130B50262F206840E060E00E94DB008FEC97E0E5
S1130B600197F1F700C00000089585E590E09093A7
S1130B70B7008093B6008CE590E09093B500809325
S1130B80B40081E10E9467000895EEE9F0E092E18B
S1130B90908381E1818312829383848321E025837E
S1130BA09683878322E020879187828723E02387A7
S1130BB09487858724E026879787808B25E0218B7F
S1130BC0928B838B86E0848BCF010E944D038EE948
S1130BD090E00E949D0541E050E060E070E08EE905
S1130BE090E00E94A30562E670E08EE990E00E9426
S1130BF095042FEF89E698E1215080409040E1F779
S1130C0000C000008EE990E00E949D058FEF8ABB32
S1130C1017BA0E94B50540E050E060E070E08EE94C
S1130C2090E00E94A3056EE670E08EE990E00E94D9
S1130C30950460919D0070E08EE990E00E94AA0402
S1130C4067E770E08EE990E00E94950441E050E08F
S1130C5060E070E08EE990E00E94A3056FE770E029
S1130C608EE990E00E94950460919C0070E08EE90A
S1130C7090E00E94AA0467E770E08EE990E00E9489
S1130C80950489EE9DEF0197F1F780919A00909178
S1130C909B00019690939B0080939A00449708F4DC
S1130CA0BACF8EE990E00E949D0568E870E08EE975
S1130CB090E00E9495042FEF89E698E1215080404E
S1130CC09040E1F700C0000010929B0010929A003F
S1130CD0A2CF8EE990E00E94BC000895A29FB001CB
S1130CE0B39FC001A39F700D811D1124911DB29F5C
S1130CF0700D811D1124911D0895EE0FFF1F0590A5
S10D0D00F491E02D0994F894FFCF5C
S1130D0A2E002053455454494E4720555000204C38
S1130D1A61737420523A00202020202020200020D1
S1130D2A4C61737420533A004E6F20496E636F6DA1
S10D0D3A696E6720446174610000D3
S9030000FC
