S01B00004C45442D4932432D536C617665203220432B2B2E7372656316
S11300000C942A000C943C000C943C000C943C008E
S11300100C943C000C943C000C943C000C943C006C
S11300200C943C000C943C000C943C000C943C005C
S11300300C943C000C943C000C943C000C943C004C
S11300400C943C000C943C000C943C000C944F0029
S11300500C943C0011241FBECFE5D8E0DEBFCDBF19
S113006020E0A0E6B0E001C01D92A536B207E1F79A
S11300700E94AD000C94BC000C94000080936000BE
S1130080809160008BBB08958091600083B90895CE
S1130090F894880F82B985EC86BF789408951F92EE
S11300A00F920FB60F9211242F933F934F935F93A8
S11300B06F937F938F939F93AF93BF93EF93FF932C
S11300C081B1887F803849F018F48823F9F022C080
S11300D0883A61F0883B91F01DC083B1E0916300E0
S11300E0F0916400099585EC86BF16C0E09161002B
S11300F0F0916200099585EC86BF0EC0E091610025
S1130100F0916200099585EC86BF06C016BE85ECA9
S113011086BF02C085EC86BFFF91EF91BF91AF917E
S11301209F918F917F916F915F914F913F912F910B
S11301300F900FBE0F901F9018958EE390E0909350
S113014064008093630084E490E090936200809361
S1130150610084E00E94480008958FEF8ABB0E94EA
S11301609D002FEF83ED90E3215080409040E1F714
S10F017000C000001BBAF5CFF894FFCFCC
S9030000FC
