:100000000C942B000C9453000C9453000C9453004C
:100010000C9453000C9453000C9453000C94530014
:100020000C9453000C9453000C9453000C94530004
:100030000C9453000C9453000C9453000C945300F4
:100040000C9453000C9453000C9453000C945300E4
:100050000C945300260711241FBECFE5D8E0DEBF65
:10006000CDBF10E0A0E6B0E0E4EDFFE002C00590F7
:100070000D92AC36B107D9F720E0ACE6B0E001C094
:100080001D92A238B207E1F710E0CBE2D0E004C045
:100090002197FE010E94E207CA32D107C9F70E94E8
:1000A000CC060C94E8070C94000016BE94EA96BFA8
:1000B00006B607FEFDCF91B1987F983079F483B9E9
:1000C00084E886BF06B607FEFDCF91B1987F9831D0
:1000D00039F081E0903429F480E0089581E00895BA
:1000E00080E0089583B984E886BF06B607FEFDCF99
:1000F00091B1987F81E0983209F480E00895FC0185
:100100009BE190838AE1818312829383848321E03F
:1001100025839683878322E020879187828723E047
:1001200023879487858724E026879787808B25E01F
:10013000218B928B838B86E0848B0895FC0164FD78
:1001400012C0A185B0E090962C91909781E090E04C
:10015000038402C0880F991F0A94E2F780958223D6
:1001600090968C9310C0A185B0E090962C919097BA
:1001700081E090E0038402C0880F991F0A94E2F79F
:10018000822B90968C9365FD12C0A485B0E090966A
:100190002C91909781E090E0068402C0880F991F0F
:1001A0000A94E2F78095822390968C9310C0A485E0
:1001B000B0E090962C91909781E090E0068402C088
:1001C000880F991F0A94E2F7822B90968C9366FD14
:1001D00012C0A785B0E090962C91909781E090E0B6
:1001E000018802C0880F991F0A94E2F78095822344
:1001F00090968C9310C0A785B0E090962C91909724
:1002000081E090E0018802C0880F991F0A94E2F70C
:10021000822B90968C93662394F0A289B0E09096FE
:100220002C91909781E090E0048802C0880F991F7C
:100230000A94E2F78095822390968C9310C0A2894D
:10024000B0E090962C91909781E090E0048802C0F5
:10025000880F991F0A94E2F7822B90968C93A081C5
:10026000B0E090964C91909781E090E09C010280E4
:1002700002C0220F331F0A94E2F7242B90962C938E
:10028000A681B0E090964C9190979C01008402C0AA
:10029000220F331F0A94E2F7242B90962C93AFEC95
:1002A000B7E01197F1F700C00000A681B0E090968A
:1002B0003C919097AC01008402C0440F551F0A94F2
:1002C000E2F7242F2095232390962C93A081B0E071
:1002D00090962C919097028002C0880F991F0A94E3
:1002E000E2F78095822390968C938FEC97E00197AC
:1002F000F1F700C0000060FD12C0A185B0E090964B
:100300002C91909781E090E0038402C0880F991FA0
:100310000A94E2F78095822390968C9310C0A18571
:10032000B0E090962C91909781E090E0038402C019
:10033000880F991F0A94E2F7822B90968C9361FDA7
:1003400012C0A485B0E090962C91909781E090E047
:10035000068402C0880F991F0A94E2F780958223D1
:1003600090968C9310C0A485B0E090962C919097B5
:1003700081E090E0068402C0880F991F0A94E2F79A
:10038000822B90968C9362FD12C0A785B0E0909668
:100390002C91909781E090E0018802C0880F991F0E
:1003A0000A94E2F78095822390968C9310C0A785DB
:1003B000B0E090962C91909781E090E0018802C087
:1003C000880F991F0A94E2F7822B90968C9363FD15
:1003D00012C0A289B0E090962C91909781E090E0B5
:1003E000048802C0880F991F0A94E2F7809582233F
:1003F00090968C9310C0A289B0E090962C91909723
:1004000081E090E0048802C0880F991F0A94E2F707
:10041000822B90968C93A081B0E090964C9190970F
:1004200081E090E09C01028002C0220F331F0A94F9
:10043000E2F7242B90962C93A681B0E090964C91F5
:1004400090979C01008402C0220F331F0A94E2F7A8
:10045000242B90962C93AFECB7E01197F1F700C0E6
:100460000000A681B0E090963C919097AC0100848A
:1004700002C0440F551F0A94E2F7242F209523232E
:1004800090962C93A081B0E090962C91909702804A
:1004900002C0880F991F0A94E2F7809582239096F4
:1004A0008C938FEC97E00197F1F700C0000008955E
:1004B0000F931F93CF93DF93EB016881662341F085
:1004C0008C012196C8010E949E0069916111FACFAA
:1004D000DF91CF911F910F910895FC0164FD12C02F
:1004E000A185B0E090962C91909781E090E00384F4
:1004F00002C0880F991F0A94E2F780958223909694
:100500008C9310C0A185B0E090962C91909781E0DB
:1005100090E0038402C0880F991F0A94E2F7822BAF
:1005200090968C9365FD12C0A485B0E090962C91B6
:10053000909781E090E0068402C0880F991F0A948A
:10054000E2F78095822390968C9310C0A485B0E04A
:1005500090962C91909781E090E0068402C0880FDD
:10056000991F0A94E2F7822B90968C9366FD12C035
:10057000A785B0E090962C91909781E090E001885B
:1005800002C0880F991F0A94E2F780958223909603
:100590008C9310C0A785B0E090962C91909781E045
:1005A00090E0018802C0880F991F0A94E2F7822B1D
:1005B00090968C93662394F0A289B0E090962C914B
:1005C000909781E090E0048802C0880F991F0A94F8
:1005D000E2F78095822390968C9310C0A289B0E0B8
:1005E00090962C91909781E090E0048802C0880F4B
:1005F000991F0A94E2F7822B90968C93A681B0E023
:1006000090964C91909781E090E09C01008402C00C
:10061000220F331F0A94E2F7242B90962C93AFEC11
:10062000B7E01197F1F700C00000A681B0E0909606
:100630002C919097008402C0880F991F0A94E2F7CA
:100640008095822390968C938FEC97E00197F1F739
:1006500000C0000060FD12C0A185B0E090962C9112
:10066000909781E090E0038402C0880F991F0A945C
:10067000E2F78095822390968C9310C0A185B0E01C
:1006800090962C91909781E090E0038402C0880FAF
:10069000991F0A94E2F7822B90968C9361FD12C009
:1006A000A485B0E090962C91909781E090E006842C
:1006B00002C0880F991F0A94E2F7809582239096D2
:1006C0008C9310C0A485B0E090962C91909781E017
:1006D00090E0068402C0880F991F0A94E2F7822BEB
:1006E00090968C9362FD12C0A785B0E090962C91F5
:1006F000909781E090E0018802C0880F991F0A94CA
:10070000E2F78095822390968C9310C0A785B0E085
:1007100090962C91909781E090E0018802C0880F1C
:10072000991F0A94E2F7822B90968C9363FD12C076
:10073000A289B0E090962C91909781E090E0048897
:1007400002C0880F991F0A94E2F780958223909641
:100750008C9310C0A289B0E090962C91909781E084
:1007600090E0048802C0880F991F0A94E2F7822B58
:1007700090968C93A681B0E090964C91909781E0F2
:1007800090E09C01008402C0220F331F0A94E2F71C
:10079000242B90962C93AFECB7E01197F1F700C0A3
:1007A0000000A681B0E090962C919097008402C042
:1007B000880F991F0A94E2F78095822390968C9374
:1007C0008FEC97E00197F1F700C00000089561E019
:1007D0000E946D028FEC97E00197F1F700C00000D6
:1007E0000895CF93DF93EC018FE295E70197F1F73E
:1007F00000C00000E985F0E030A181E090E0AC01AC
:100800000B8402C0440F551F0A94E2F7242F209551
:10081000232320A3EC85F0E030A1AC010E8402C0BC
:10082000440F551F0A94E2F7242F2095232320A379
:10083000EF85F0E030A1AC01098802C0440F551FDC
:100840000A94E2F7242F2095232320A3EA89F0E0DD
:1008500030A1AC010C8802C0440F551F0A94E2F786
:10086000242F2095232320A3EE81F0E030A1AC01BA
:10087000088402C0440F551F0A94E2F7242F2095E4
:10088000232320A3EA85F0E040A19C010B8402C051
:10089000220F331F0A94E2F7242B20A3ED85F0E00A
:1008A00040A19C010E8402C0220F331F0A94E2F77C
:1008B000242B20A3E889F0E040A19C01098802C014
:1008C000220F331F0A94E2F7242B20A3EB89F0E0D8
:1008D00040A19C010C8802C0220F331F0A94E2F74A
:1008E000242B20A3EF81F0E040A19C01088402C0EA
:1008F000220F331F0A94E2F7242B20A3E981F0E0B2
:1009000040A19C010A8002C0220F331F0A94E2F723
:10091000242B20A3EC81F0E040A19C010D8002C0BB
:10092000220F331F0A94E2F7242B20A3E985F0E07D
:1009300040A19C010B8402C0220F331F0A94E2F7EE
:10094000242B20A3EC85F0E040A19C010E8402C082
:10095000220F331F0A94E2F7242B20A3EF85F0E047
:1009600030A1AC01098802C0440F551F0A94E2F778
:10097000242F2095232320A3EA89F0E030A1AC01A5
:100980000C8802C0440F551F0A94E2F7242F2095CB
:10099000232320A3EE81F0E040A19C01088402C043
:1009A000220F331F0A94E2F7242B20A3E881F0E002
:1009B00030A1AC010A8002C0440F551F0A94E2F72F
:1009C000242F2095232320A3EB81F0E030A1AC015C
:1009D0000D8002C0440F551F0A94E2F7242F209582
:1009E000232320A3EFECF7E03197F1F700C00000DC
:1009F000EE81F0E030A1AC01088402C0440F551F25
:100A00000A94E2F7242F2095232320A3EFECF7E0AC
:100A10003197F1F700C00000E985F0E040A19C01AA
:100A20000B8402C0220F331F0A94E2F7242B20A369
:100A3000EC85F0E040A19C010E8402C0220F331F20
:100A40000A94E2F7242B20A3EF85F0E030A1AC015B
:100A5000098802C0440F551F0A94E2F7242F2095FD
:100A6000232320A3EA89F0E030A1AC010C8802C066
:100A7000440F551F0A94E2F7242F2095232320A327
:100A8000EE81F0E040A19C01088402C0220F331FD8
:100A90000A94E2F7242B20A3E881F0E030A1AC0116
:100AA0000A8002C0440F551F0A94E2F7242F2095B4
:100AB000232320A3EB81F0E030A1AC010D8002C024
:100AC000440F551F0A94E2F7242F2095232320A3D7
:100AD000EFECF7E03197F1F700C00000EE81F0E0B5
:100AE00030A1AC01088402C0440F551F0A94E2F7FC
:100AF000242F2095232320A3EFECF7E03197F1F783
:100B000000C00000E985F0E030A1AC010B8402C018
:100B1000440F551F0A94E2F7242F2095232320A386
:100B2000EC85F0E040A19C010E8402C0220F331F2F
:100B30000A94E2F7242B20A3EF85F0E030A1AC016A
:100B4000098802C0440F551F0A94E2F7242F20950C
:100B5000232320A3EA89F0E030A1AC010C8802C075
:100B6000440F551F0A94E2F7242F2095232320A336
:100B7000EE81F0E040A19C01088402C0220F331FE7
:100B80000A94E2F7242B20A3E881F0E030A1AC0125
:100B90000A8002C0440F551F0A94E2F7242F2095C3
:100BA000232320A3EB81F0E030A1AC010D8002C033
:100BB000440F551F0A94E2F7242F2095232320A3E6
:100BC000EFECF7E03197F1F700C00000EE81F0E0C4
:100BD00020A1088402C0880F991F0A94E2F780952B
:100BE000822380A38FEC97E00197F1F700C000000B
:100BF00068E2CE010E946D026CE0CE010E946D029F
:100C0000CE010E94E703DF91CF9108952F923F928A
:100C10004F925F926F927F928F929F92AF92BF920C
:100C2000CF92DF92EF92FF920F931F93CF93DF93B8
:100C3000CDB7DEB72A970FB6F894DEBF0FBECDBF93
:100C40005C01662E69017A0122E0621326C000234E
:100C500009F476C088248394912C11E0712C8FEFD5
:100C6000800FF40102C0EE0FFF1F8A95E2F7CF015B
:100C7000092E000CAA0BBB0B8C219D21AE21BF219C
:100C8000612F892B8A2B8B2B09F4672D605DC501A1
:100C90000E949E00015019F753C0C114D104E10411
:100CA000F10419F0011111C04BC0002309F448C030
:100CB00010E003C01A3009F443C060E3C5010E948C
:100CC0009E001F5F0113F6CF3BC09E012F5F3F4F79
:100CD000490110E0262E312C412C512CC114D10495
:100CE000E104F10489F07C2CC701B601A201910155
:100CF0000E94C007C22ED32EE42EF52E629E7018DD
:100D00001124F401708208C00B3020F01123C1F0CF
:100D1000012F08C0F40110821F5FFFEF8F1A9F0A96
:100D20000113DCCFFE01E00FF11D60816A3010F08D
:100D3000695C01C0605DC5010E949E00015091F791
:100D40002A960FB6F894DEBF0FBECDBFDF91CF91CC
:100D50001F910F91FF90EF90DF90CF90BF90AF90D9
:100D60009F908F907F906F905F904F903F902F90CB
:100D700008950F93CF93DF93EC01CB01BA010E944A
:100D80002B079B01AC010FEF6AE0CE010E94060623
:100D9000DF91CF910F91089580E280B91ABA17BA06
:100DA000ECE6F0E092E1908381E18183128293830B
:100DB000848321E025839683878322E0208791879F
:100DC000828723E023879487858724E02687978777
:100DD000808B25E0218B928B838B86E0848B42E095
:100DE00060E1CF010E94F103C4E9B09BFECF8CE625
:100DF00090E00E94E70360E670E08CE690E00E94DD
:100E0000580269B370E080E090E00E945C07AB019B
:100E1000BC018CE690E00E94B906B19904C080E262
:100E20000E94550005C0B19B03C080E40E9455009C
:100E300089B30E947200C6BF2FEF89E698E1215066
:100E400080409040E1F700C00000CFCF8CE690E0FA
:100E50000E947F0008950E949F0788F09F5798F096
:100E6000B92F9927B751B0F0E1F0660F771F881FAF
:100E7000991F1AF0BA95C9F714C0B13091F00E94C9
:100E8000B907B1E008950C94B907672F782F882728
:100E9000B85F39F0B93FCCF3869577956795B395F0
:100EA000D9F73EF490958095709561957F4F8F4F5F
:100EB0009F4F0895E89409C097FB3EF49095809564
:100EC000709561957F4F8F4F9F4F9923A9F0F92F10
:100ED00096E9BB279395F695879577956795B7958E
:100EE000F111F8CFFAF4BB0F11F460FF1BC06F5F74
:100EF0007F4F8F4F9F4F16C0882311F096E911C086
:100F0000772321F09EE8872F762F05C0662371F0A6
:100F100096E8862F70E060E02AF09A95660F771FBA
:100F2000881FDAF7880F9695879597F9089557FDEA
:100F30009058440F551F59F05F3F71F04795880F47
:100F400097FB991F61F09F3F79F0879508951216DE
:100F500013061406551FF2CF4695F1DF08C016168A
:100F600017061806991FF1CF86957105610508943B
:100F70000895E894BB2766277727CB0197F9089552
:100F8000A1E21A2EAA1BBB1BFD010DC0AA1FBB1F8D
:100F9000EE1FFF1FA217B307E407F50720F0A21BFF
:100FA000B30BE40BF50B661F771F881F991F1A946C
:100FB00069F760957095809590959B01AC01BD0196
:100FC000CF010895EE0FFF1F0590F491E02D0994D5
:040FD000F894FFCFC3
:0C0FD400504F5254206973203A20000056
:00000001FF
