:100000000C942B000C9453000C9453000C9453004C
:100010000C9453000C9453000C9453000C94530014
:100020000C9453000C9453000C9453000C94530004
:100030000C9453000C9453000C9453000C945300F4
:100040000C9453000C9453000C9453000C941C011A
:100050000C9453002A0711241FBECFE5D8E0DEBF61
:10006000CDBF10E0A0E6B0E0E6EEFEE002C00590F5
:100070000D92A639B107D9F720E0A6E9B0E001C09A
:100080001D92A03BB207E1F710E0CBE2D0E004C044
:100090002197FE010E946B07CA32D107C9F70E945F
:1000A0005D060C9471070C94000006B607FEFDCFA8
:1000B000089511B821B1237030E0121613066CF4C4
:1000C00081E090E0A1E0B0E0AA0FBB1FAA0FBB1F28
:1000D000019628173907C4F702C0A1E0B0E0B0E0EC
:1000E00020E43DE043E050E00E9460079B01AC014A
:1000F00060E078EA81E690E00E942F0720B9089539
:10010000CF93C82F16BE84EA86BF0E94550081B1E6
:10011000887F883091F4C3B984E886BF0E94550077
:1001200081B1887F883139F091B1987F81E0903436
:1001300029F480E003C080E001C081E0CF91089500
:1001400083B984E886BF0E94550091B1987F81E011
:10015000983209F480E0089584EC86BF0E9455002F
:1001600083B1089584E886BF0E94550083B1089545
:10017000CF92DF92FF920F931F93CF93DF936B0188
:100180008A01880F0E948000F82E811111C001158C
:10019000110559F0E6010C0D1D1D89910E94A0006A
:1001A000811109C0C017D107C1F784E986BF05C016
:1001B000FF24F39402C0FF24F3948F2DDF91CF919D
:1001C0001F910F91FF90DF90CF900895AF92BF9253
:1001D000DF92EF92FF920F931F93CF93DF935B0118
:1001E0007A01880F81600E948000D82E811117C08B
:1001F00081E0E81AF10851F0E50185010E0D1F1D9F
:100200000E94AC008993C017D107D1F7E501CE0D4C
:10021000DF1D0E94B200888384E986BF02C0DD240E
:10022000D3948D2DDF91CF911F910F91FF90EF907F
:10023000DF90BF90AF9008951F920F920FB60F926C
:1002400011242F933F934F935F936F937F938F93DB
:100250009F93AF93BF93EF93FF9381B1887F8038D3
:1002600049F018F48823F9F022C0883A61F0883BFD
:1002700091F01DC083B1E091AE00F091AF000995FF
:1002800085EC86BF16C0E091AC00F091AD000995F9
:1002900085EC86BF0EC0E091AC00F091AD000995F1
:1002A00085EC86BF06C016BE85EC86BF02C085EC15
:1002B00086BFFF91EF91BF91AF919F918F917F91F9
:1002C0006F915F914F913F912F910F900FBE0F90C3
:1002D0001F901895FC019BE190838AE18183128233
:1002E0009383848321E025839683878322E020877C
:1002F0009187828723E023879487858724E0268758
:100300009787808B25E0218B928B838B86E0848B73
:1003100008958F929F92AF92BF92CF92DF92EF9209
:10032000FF920F931F93CF93DF93FC01822F90E0F6
:100330004C0195948794EC01D595C795D595C795B3
:100340008C011595079515950795159507957C01D1
:10035000F594E794F594E794F594E794F594E7948D
:100360006C01D594C794D594C794D594C794D5946B
:10037000C794D594C7945C010A2CAB2C000CAA1C22
:10038000BB08000CAA1CBB1C880F892F881F990B67
:1003900060FF11C0A081B0E090963C91909761E021
:1003A00070E0028002C0660F771F0A94E2F7632BA9
:1003B00090966C9311C0A081B0E090963C9190977C
:1003C00061E070E0028002C0660F771F0A94E2F7D6
:1003D0006095632390966C9340FF11C0A381B0E0B9
:1003E00090963C91909741E050E0058002C0440F08
:1003F000551F0A94E2F7432B90964C9311C0A381AA
:10040000B0E090963C91909741E050E0058002C0AA
:10041000440F551F0A94E2F74095432390964C935E
:1004200080FF11C0A289B0E090963C91909781E046
:1004300090E0048802C0880F991F0A94E2F7832B8A
:1004400090968C9311C0A289B0E090963C919097C1
:1004500081E090E0048802C0880F991F0A94E2F7B7
:100460008095832390968C93A0FE11C0A785B0E061
:1004700090963C91909781E090E0018802C0880FAF
:10048000991F0A94E2F7832B90968C9311C0A7854D
:10049000B0E090963C91909781E090E0018802C096
:1004A000880F991F0A94E2F78095832390968C9386
:1004B000C0FE11C0A485B0E090963C91909781E079
:1004C00090E0068402C0880F991F0A94E2F7832BFC
:1004D00090968C9311C0A485B0E090963C91909733
:1004E00081E090E0068402C0880F991F0A94E2F729
:1004F0008095832390968C93E0FE11C0A185B0E097
:1005000090963C91909781E090E0038402C0880F20
:10051000991F0A94E2F7832B90968C9311C0A185C2
:10052000B0E090963C91909781E090E0038402C007
:10053000880F991F0A94E2F78095832390968C93F5
:10054000A681B0E090963C91909781E090E0AC015C
:10055000008402C0440F551F0A94E2F7432B909683
:100560004C93AFECB7E01197F1F700C00000A68103
:10057000B0E090963C919097008402C0880F991F3C
:100580000A94E2F78095832390968C938FEC97E002
:100590000197F1F700C0000000FF11C0A289B0E090
:1005A00090963C91909781E090E0048802C0880F7B
:1005B000991F0A94E2F7832B90968C9311C0A2891D
:1005C000B0E090963C91909781E090E0048802C062
:1005D000880F991F0A94E2F78095832390968C9355
:1005E000C0FF11C0A785B0E090963C91909781E044
:1005F00090E0018802C0880F991F0A94E2F7832BCC
:1006000090968C9311C0A785B0E090963C919097FE
:1006100081E090E0018802C0880F991F0A94E2F7F8
:100620008095832390968C9380FE11C0A485B0E0C2
:1006300090963C91909781E090E0068402C0880FEC
:10064000991F0A94E2F7832B90968C9311C0A4858E
:10065000B0E090963C91909781E090E0068402C0D3
:10066000880F991F0A94E2F78095832390968C93C4
:1006700020FF11C0A185B0E090962C91909781E069
:1006800090E0038402C0880F991F0A94E2F7822B3E
:1006900090968C9311C0A185B0E090962C91909784
:1006A00081E090E0038402C0880F991F0A94E2F76A
:1006B0008095822390968C93A681B0E090964C9181
:1006C000909781E090E09C01008402C0220F331FCC
:1006D0000A94E2F7242B90962C93AFECB7E0119795
:1006E000F1F700C00000A681B0E090963C91909791
:1006F000AC01008402C0440F551F0A94E2F7242F76
:100700002095232390962C93AFECB7E01197F1F747
:1007100000C00000A081B0E090963C919097AC01A1
:10072000028002C0440F551F0A94E2F7242F20953F
:10073000232390962C93A381B0E090963C919097C0
:10074000AC01058002C0440F551F0A94E2F7242F24
:100750002095232390962C93A289B0E090963C910B
:100760009097AC01048802C0440F551F0A94E2F729
:10077000242F2095232390962C93A785B0E0909664
:100780003C919097AC01018802C0440F551F0A9418
:10079000E2F7242F2095232390962C93A485B0E094
:1007A00090963C919097AC01068402C0440F551F6F
:1007B0000A94E2F7242F2095232390962C93A18569
:1007C000B0E090962C919097038402C0880F991FF7
:1007D0000A94E2F78095822390968C93DF91CF91D3
:1007E0001F910F91FF90EF90DF90CF90BF90AF904F
:1007F0009F908F900895CF93DF93EC018FE295E760
:100800000197F1F700C00000E985F0E030A181E038
:1008100090E0AC010B8402C0440F551F0A94E2F72C
:10082000242F2095232320A3EC85F0E030A1AC01F8
:100830000E8402C0440F551F0A94E2F7242F20951E
:10084000232320A3EF85F0E030A1AC01098802C08A
:10085000440F551F0A94E2F7242F2095232320A349
:10086000EA89F0E030A1AC010C8802C0440F551FAA
:100870000A94E2F7242F2095232320A3EE81F0E0B1
:1008800030A1AC01088402C0440F551F0A94E2F75E
:10089000242F2095232320A3EA85F0E040A19C018A
:1008A0000B8402C0220F331F0A94E2F7242B20A3EB
:1008B000ED85F0E040A19C010E8402C0220F331FA1
:1008C0000A94E2F7242B20A3E889F0E040A19C01E0
:1008D000098802C0220F331F0A94E2F7242B20A3B9
:1008E000EB89F0E040A19C010C8802C0220F331F6D
:1008F0000A94E2F7242B20A3EF81F0E040A19C01B1
:10090000088402C0220F331F0A94E2F7242B20A38D
:10091000E981F0E040A19C010A8002C0220F331F50
:100920000A94E2F7242B20A3EC81F0E040A19C0183
:100930000D8002C0220F331F0A94E2F7242B20A35C
:10094000E881F0E030A1AC010A8002C0440F551FDD
:100950000A94E2F7242F2095232320A3EB81F0E0D3
:1009600030A1AC010D8002C0440F551F0A94E2F77C
:10097000242F2095232320A3EA89F0E030A1AC01A5
:100980000C8802C0440F551F0A94E2F7242F2095CB
:10099000232320A3EF85F0E030A1AC01098802C039
:1009A000440F551F0A94E2F7242F2095232320A3F8
:1009B000EC85F0E040A19C010E8402C0220F331FA1
:1009C0000A94E2F7242B20A3E985F0E030A1AC01E2
:1009D0000B8402C0440F551F0A94E2F7242F209580
:1009E000232320A3EE81F0E040A19C01088402C0F3
:1009F000220F331F0A94E2F7242B20A3EFECF7E039
:100A00003197F1F700C00000EE81F0E020A10884EA
:100A100002C0880F991F0A94E2F78095822380A371
:100A20008FEC97E00197F1F700C0000028E240E06A
:100A300060E0CE010E948901EFECF7E03197F1F719
:100A400000C000002CE040E060E0CE010E9489017F
:100A50008FEC97E00197F1F700C0000026E040E03E
:100A600060E0CE010E948901EFECF7E03197F1F7E9
:100A700000C00000DF91CF910895262F40E061E093
:100A80000E94890108950F931F93CF93DF93EB0189
:100A90006881662341F08C012196C8010E943D05C2
:100AA00069916111FACFDF91CF911F910F91089554
:100AB0008F929F92AF92BF92CF92DF92EF92FF926E
:100AC0000F931F93CF93DF935C01EB019B01329552
:100AD00022952F7023273F702327A7E4B3E00E94BD
:100AE00051078C011695079516950795169507954C
:100AF00020E137E2029FC001039F900D129F900DED
:100B00001124C81BD90B9E0136952795369527953C
:100B100036952795A5ECB0E20E9451076C01D6945A
:100B2000C794D694C794D694C794D694C79428EE05
:100B300033E0C29EC001C39E900DD29E900D112441
:100B4000C81BD90B9E013695279536952795ABE79F
:100B5000B4E10E9451074C019694879424E6289DA5
:100B6000C001299D900D1124C81BD90B9E01ADEC2D
:100B7000BCEC0E9451077C01F694E794F694E7944C
:100B8000F694E7949701220F331FC701880F991F2E
:100B9000880F991F880F991F820F931FC81BD90BAD
:100BA0000115110591F4C114D10479F48114910453
:100BB00009F047C0E114F10409F056C02097D9F5B7
:100BC00060E3C5010E943D0559C001151105C9F436
:100BD000C114D10409F452C060E36C0DC5010E9438
:100BE0003D0560E3680DC5010E943D0560E36E0DA3
:100BF000C5010E943D056C2F605DC5010E943D0549
:100C00003DC060E3600FC5010E943D0560E36C0DCF
:100C1000C5010E943D0560E3680DC5010E943D05C8
:100C200060E36E0DC5010E943D056C2F605DC5013E
:100C30000E943D0523C06C2F605DC5010E943D05EB
:100C40001DC060E3680DC5010E943D0560E36E0DA7
:100C5000C5010E943D056C2F605DC5010E943D05E8
:100C60000115110559F0CDCF60E36E0DC5010E944D
:100C70003D056C2F605DC5010E943D05DF91CF9160
:100C80001F910F91FF90EF90DF90CF90BF90AF90AA
:100C90009F908F9008954130510511F4605C7F4F13
:100CA000262F206840E060E00E9489018FEC97E0E9
:100CB0000197F1F700C000000895CF93DF9300D0B3
:100CC000CDB7DEB7E6E9F0E092E1908381E1818380
:100CD00012829383848321E025839683878322E095
:100CE00020879187828723E023879487858724E064
:100CF00026879787808B25E0218B928B838B86E0DC
:100D0000848BCF010E94FB030E94590062E670E0D1
:100D100086E990E00E94430560B170E086E990E0CA
:100D20000E94580541E050E061E070E086E990E003
:100D30000E944B0669E670E086E990E00E94430558
:100D400061B1637070E086E990E00E9458052FEF72
:100D500089E698E1215080409040E1F700C0000012
:100D60001ABA17BA16B389B38A8341E050E0BE01BC
:100D70006E5F7F4F812F0E94B8008FE19EE4019744
:100D8000F1F700C0000040E050E060E070E086E96C
:100D900090E00E944B0661E770E086E990E00E94D7
:100DA00043056A8170E086E990E00E94580568E793
:100DB00070E086E990E00E944305E12EF12CB70136
:100DC00086E990E00E9458056DE770E086E990E0C2
:100DD0000E9443058FE19EE40197F1F700C00000F7
:100DE00041E050E0BE016F5F7F4F812F0E94E6001F
:100DF0008FE19EE40197F1F700C0000041E050E070
:100E000060E070E086E990E00E944B0668E870E0E0
:100E100086E990E00E944305698170E086E990E0F0
:100E20000E9458056FE870E086E990E00E94430553
:100E3000B70186E990E00E9458056DE770E086E909
:100E400090E00E9443058FE19EE40197F1F700C016
:100E5000000088CF86E990E00E946A010895A1E22F
:100E60001A2EAA1BBB1BFD010DC0AA1FBB1FEE1F24
:100E7000FF1FA217B307E407F50720F0A21BB30B6F
:100E8000E40BF50B661F771F881F991F1A9469F7EB
:100E900060957095809590959B01AC01BD01CF0147
:100EA0000895A29FB001B39FC001A39F700D811D43
:100EB0001124911DB29F700D811D1124911D089563
:100EC0000E945107A59F900DB49F900DA49F800D87
:100ED000911D11240895EE0FFF1F0590F491E02D50
:060EE0000994F894FFCF15
:100EE6002E0054574252203A002054575053203A6D
:100EF6000053454E443A200020746F2000202020E5
:100F06002020202020202000524541443A20002065
:060F160046726F6D200021
:00000001FF
