:100000000C942B000C9453000C9453000C9453004C
:100010000C9453000C9453000C9453000C94530014
:100020000C9453000C9453000C9453000C94530004
:100030000C9453000C9453000C9453000C945300F4
:100040000C9453000C9453000C9453000C94A60091
:100050000C9453000A0811241FBECFE5D8E0DEBF80
:10006000CDBF10E0A0E6B0E0E0EDF1E102C0059008
:100070000D92A638B107D9F720E0A6E8B0E001C09C
:100080001D92A03AB207E1F710E0CBE2D0E004C045
:100090002197FE010E94C608CA32D107C9F70E9403
:1000A0006F070C94E6080C94000011B821B123707E
:1000B00030E0121613066CF481E090E0A1E0B0E0AD
:1000C000AA0FBB1FAA0FBB1F019628173907C4F739
:1000D00002C0A1E0B0E0B0E020E43DE043E050E049
:1000E0000E94CC089B01AC0160E078EA81E690E0D8
:1000F0000E94A40820B9089516BE94EA96BF06B6D9
:1001000007FEFDCF91B1987F983079F483B984E8E8
:1001100086BF06B607FEFDCF91B1987F983139F0C2
:1001200081E0903429F480E0089581E0089580E032
:10013000089583B984E886BF06B607FEFDCF91B166
:10014000987F81E0983209F480E008951F920F9221
:100150000FB60F9211242F933F934F935F936F939A
:100160007F938F939F93AF93BF93EF93FF9381B14F
:10017000887F803849F018F48823F9F022C0883A43
:1001800061F0883B91F01DC083B1E0919E00F09139
:100190009F00099585EC86BF16C0E0919C00F09108
:1001A0009D00099585EC86BF0EC0E0919C00F09102
:1001B0009D00099585EC86BF06C016BE85EC86BFFE
:1001C00002C085EC86BFFF91EF91BF91AF919F91E7
:1001D0008F917F916F915F914F913F912F910F90F0
:1001E0000FBE0F901F901895FC019BE190838AE150
:1001F000818312829383848321E02583968387837E
:1002000022E020879187828723E023879487858750
:1002100024E026879787808B25E0218B928B838B28
:1002200086E0848B0895FC0164FD12C0A185B0E0D6
:1002300090962C91909781E090E0038402C0880F03
:10024000991F0A94E2F78095822390968C9310C0B0
:10025000A185B0E090962C91909781E090E0038486
:1002600002C0880F991F0A94E2F7822B90968C9314
:1002700065FD12C0A485B0E090962C91909781E026
:1002800090E0068402C0880F991F0A94E2F78095D7
:10029000822390968C9310C0A485B0E090962C9108
:1002A000909781E090E0068402C0880F991F0A941D
:1002B000E2F7822B90968C9366FD12C0A785B0E082
:1002C00090962C91909781E090E0018802C0880F71
:1002D000991F0A94E2F78095822390968C9310C020
:1002E000A785B0E090962C91909781E090E00188EE
:1002F00002C0880F991F0A94E2F7822B90968C9384
:10030000662394F0A289B0E090962C91909781E0BA
:1003100090E0048802C0880F991F0A94E2F7809544
:10032000822390968C9310C0A289B0E090962C9175
:10033000909781E090E0048802C0880F991F0A948A
:10034000E2F7822B90968C93A081B0E090964C912E
:10035000909781E090E09C01028002C0220F331F41
:100360000A94E2F7242B90962C93A681B0E0909605
:100370004C9190979C01008402C0220F331F0A9475
:10038000E2F7242B90962C93AFECB7E01197F1F79E
:1003900000C00000A681B0E090963C919097AC011F
:1003A000008402C0440F551F0A94E2F7242F2095C1
:1003B000232390962C93A081B0E090962C91909757
:1003C000028002C0880F991F0A94E2F78095822369
:1003D00090968C938FEC97E00197F1F700C00000A6
:1003E00060FD12C0A185B0E090962C91909781E0BD
:1003F00090E0038402C0880F991F0A94E2F7809569
:10040000822390968C9310C0A185B0E090962C9199
:10041000909781E090E0038402C0880F991F0A94AE
:10042000E2F7822B90968C9361FD12C0A485B0E018
:1004300090962C91909781E090E0068402C0880FFE
:10044000991F0A94E2F78095822390968C9310C0AE
:10045000A485B0E090962C91909781E090E006847E
:1004600002C0880F991F0A94E2F7822B90968C9312
:1004700062FD12C0A785B0E090962C91909781E024
:1004800090E0018802C0880F991F0A94E2F78095D6
:10049000822390968C9310C0A785B0E090962C9103
:1004A000909781E090E0018802C0880F991F0A941C
:1004B000E2F7822B90968C9363FD12C0A289B0E084
:1004C00090962C91909781E090E0048802C0880F6C
:1004D000991F0A94E2F78095822390968C9310C01E
:1004E000A289B0E090962C91909781E090E00488EA
:1004F00002C0880F991F0A94E2F7822B90968C9382
:10050000A081B0E090964C91909781E090E09C01A2
:10051000028002C0220F331F0A94E2F7242B909628
:100520002C93A681B0E090964C9190979C0100840A
:1005300002C0220F331F0A94E2F7242B90962C93CB
:10054000AFECB7E01197F1F700C00000A681B0E072
:1005500090963C919097AC01008402C0440F551FC7
:100560000A94E2F7242F2095232390962C93A081C0
:10057000B0E090962C919097028002C0880F991F4E
:100580000A94E2F78095822390968C938FEC97E003
:100590000197F1F700C0000008950F931F93CF93C8
:1005A000DF93EB016881662341F08C012196C8013D
:1005B0000E94130169916111FACFDF91CF911F91D0
:1005C0000F910895FC0164FD12C0A185B0E09096E2
:1005D0002C91909781E090E0038402C0880F991FCE
:1005E0000A94E2F78095822390968C9310C0A1859F
:1005F000B0E090962C91909781E090E0038402C047
:10060000880F991F0A94E2F7822B90968C9365FDD0
:1006100012C0A485B0E090962C91909781E090E074
:10062000068402C0880F991F0A94E2F780958223FE
:1006300090968C9310C0A485B0E090962C919097E2
:1006400081E090E0068402C0880F991F0A94E2F7C7
:10065000822B90968C9366FD12C0A785B0E0909691
:100660002C91909781E090E0018802C0880F991F3B
:100670000A94E2F78095822390968C9310C0A78508
:10068000B0E090962C91909781E090E0018802C0B4
:10069000880F991F0A94E2F7822B90968C93662319
:1006A00094F0A289B0E090962C91909781E090E030
:1006B000048802C0880F991F0A94E2F7809582236C
:1006C00090968C9310C0A289B0E090962C91909750
:1006D00081E090E0048802C0880F991F0A94E2F735
:1006E000822B90968C93A681B0E090964C91909737
:1006F00081E090E09C01008402C0220F331F0A9425
:10070000E2F7242B90962C93AFECB7E01197F1F71A
:1007100000C00000A681B0E090962C9190970084D4
:1007200002C0880F991F0A94E2F780958223909661
:100730008C938FEC97E00197F1F700C0000060FD0B
:1007400012C0A185B0E090962C91909781E090E046
:10075000038402C0880F991F0A94E2F780958223D0
:1007600090968C9310C0A185B0E090962C919097B4
:1007700081E090E0038402C0880F991F0A94E2F799
:10078000822B90968C9361FD12C0A485B0E0909668
:100790002C91909781E090E0068402C0880F991F09
:1007A0000A94E2F78095822390968C9310C0A485DA
:1007B000B0E090962C91909781E090E0068402C082
:1007C000880F991F0A94E2F7822B90968C9362FD12
:1007D00012C0A785B0E090962C91909781E090E0B0
:1007E000018802C0880F991F0A94E2F7809582233E
:1007F00090968C9310C0A785B0E090962C9190971E
:1008000081E090E0018802C0880F991F0A94E2F706
:10081000822B90968C9363FD12C0A289B0E09096D3
:100820002C91909781E090E0048802C0880F991F76
:100830000A94E2F78095822390968C9310C0A28947
:10084000B0E090962C91909781E090E0048802C0EF
:10085000880F991F0A94E2F7822B90968C93A681B9
:10086000B0E090964C91909781E090E09C010084DC
:1008700002C0220F331F0A94E2F7242B90962C9388
:10088000AFECB7E01197F1F700C00000A681B0E02F
:1008900090962C919097008402C0880F991F0A941B
:1008A000E2F78095822390968C938FEC97E00197E6
:1008B000F1F700C00000089561E00E94E2028FECB1
:1008C00097E00197F1F700C000000895423031F041
:1008D000433031F0413029F4605C03C06C5E01C0EC
:1008E0006C5A60680E94E2028FEC97E00197F1F782
:1008F00000C0000008950F931F93CF93DF938C01E6
:10090000EB01642F422F0E9466046881662339F050
:100910002196C8010E94130169916111FACFDF91FC
:10092000CF911F910F910895CF93DF93EC018FE248
:1009300095E70197F1F700C00000E985F0E030A1EC
:1009400081E090E0AC010B8402C0440F551F0A9473
:10095000E2F7242F2095232320A3EC85F0E030A19B
:10096000AC010E8402C0440F551F0A94E2F7242FF5
:100970002095232320A3EF85F0E030A1AC01098866
:1009800002C0440F551F0A94E2F7242F2095232319
:1009900020A3EA89F0E030A1AC010C8802C0440F2A
:1009A000551F0A94E2F7242F2095232320A3EE81DC
:1009B000F0E030A1AC01088402C0440F551F0A9436
:1009C000E2F7242F2095232320A3EA85F0E040A11D
:1009D0009C010B8402C0220F331F0A94E2F7242BE0
:1009E00020A3ED85F0E040A19C010E8402C0220FFF
:1009F000331F0A94E2F7242B20A3E889F0E040A1FA
:100A00009C01098802C0220F331F0A94E2F7242BAD
:100A100020A3EB89F0E040A19C010C8802C0220FCA
:100A2000331F0A94E2F7242B20A3EF81F0E040A1CA
:100A30009C01088402C0220F331F0A94E2F7242B82
:100A400020A3E981F0E040A19C010A8002C0220FAE
:100A5000331F0A94E2F7242B20A3EC81F0E040A19D
:100A60009C010D8002C0220F331F0A94E2F7242B51
:100A700020A3E985F0E040A19C010B8402C0220F75
:100A8000331F0A94E2F7242B20A3EC85F0E040A169
:100A90009C010E8402C0220F331F0A94E2F7242B1C
:100AA00020A3EE81F0E040A19C01088402C0220F47
:100AB000331F0A94E2F7242B20A3EF85F0E030A146
:100AC000AC01098802C0440F551F0A94E2F7242F95
:100AD0002095232320A3EA89F0E030A1AC010C8803
:100AE00002C0440F551F0A94E2F7242F20952323B8
:100AF00020A3E881F0E030A1AC010A8002C0440FDD
:100B0000551F0A94E2F7242F2095232320A3EB817D
:100B1000F0E030A1AC010D8002C0440F551F0A94D3
:100B2000E2F7242F2095232320A3EFECF7E0319761
:100B3000F1F700C00000EE81F0E030A1AC010884C4
:100B400002C0440F551F0A94E2F7242F2095232357
:100B500020A3EFECF7E03197F1F700C00000E98542
:100B6000F0E040A19C010B8402C0220F331F0A94C5
:100B7000E2F7242B20A3EC85F0E040A19C010E8439
:100B800002C0220F331F0A94E2F7242B20A3EF8523
:100B9000F0E030A1AC01098802C0440F551F0A944F
:100BA000E2F7242F2095232320A3EA89F0E030A147
:100BB000AC010C8802C0440F551F0A94E2F7242FA1
:100BC0002095232320A3EE81F0E040A19C0108841E
:100BD00002C0220F331F0A94E2F7242B20A3E881DE
:100BE000F0E030A1AC010A8002C0440F551F0A9406
:100BF000E2F7242F2095232320A3EB81F0E030A1FE
:100C0000AC010D8002C0440F551F0A94E2F7242F57
:100C10002095232320A3EFECF7E03197F1F700C0F4
:100C20000000EE81F0E030A1AC01088402C0440F66
:100C3000551F0A94E2F7242F2095232320A3EFECDD
:100C4000F7E03197F1F700C00000E985F0E030A14E
:100C5000AC010B8402C0440F551F0A94E2F7242F05
:100C60002095232320A3EC85F0E040A19C010E8475
:100C700002C0220F331F0A94E2F7242B20A3EF8532
:100C8000F0E030A1AC01098802C0440F551F0A945E
:100C9000E2F7242F2095232320A3EA89F0E030A156
:100CA000AC010C8802C0440F551F0A94E2F7242FB0
:100CB0002095232320A3EE81F0E040A19C0108842D
:100CC00002C0220F331F0A94E2F7242B20A3E881ED
:100CD000F0E030A1AC010A8002C0440F551F0A9415
:100CE000E2F7242F2095232320A3EB81F0E030A10D
:100CF000AC010D8002C0440F551F0A94E2F7242F67
:100D00002095232320A3EFECF7E03197F1F700C003
:100D10000000EE81F0E020A1088402C0880F991F36
:100D20000A94E2F78095822380A38FEC97E00197E5
:100D3000F1F700C0000068E2CE010E94E2026CE020
:100D4000CE010E94E202CE010E945C04DF91CF91AD
:100D500008952F923F924F925F926F927F928F925F
:100D60009F92AF92BF92CF92DF92EF92FF920F933A
:100D70001F93CF93DF93CDB7DEB72A970FB6F894C2
:100D8000DEBF0FBECDBF5C01662E69017A0122E095
:100D9000621326C0002309F476C088248394912C22
:100DA00011E0712C8FEF800FF40102C0EE0FFF1FD6
:100DB0008A95E2F7CF01092E000CAA0BBB0B8C2100
:100DC0009D21AE21BF21612F892B8A2B8B2B09F40A
:100DD000672D605DC5010E941301015019F753C0D2
:100DE000C114D104E104F10419F0011111C04BC088
:100DF000002309F448C010E003C01A3009F443C0CE
:100E000060E3C5010E9413011F5F0113F6CF3BC0D1
:100E10009E012F5F3F4F490110E0262E312C412CBF
:100E2000512CC114D104E104F10489F07C2CC701D8
:100E3000B601A20191010E94A408C22ED32EE42E75
:100E4000F52E629E70181124F401708208C00B30D8
:100E500020F01123C1F0012F08C0F40110821F5FA0
:100E6000FFEF8F1A9F0A0113DCCFFE01E00FF11D87
:100E700060816A3010F0695C01C0605DC5010E944C
:100E80001301015091F72A960FB6F894DEBF0FBEFA
:100E9000CDBFDF91CF911F910F91FF90EF90DF9029
:100EA000CF90BF90AF909F908F907F906F905F900A
:100EB0004F903F902F9008950F93CF93DF93EC01C5
:100EC000CB01BA010E940F089B01AC010FEF6AE051
:100ED000CE010E94A906DF91CF910F910895E6E817
:100EE000F0E092E1908381E1818312829383848395
:100EF00021E025839683878322E02087918782875C
:100F000023E023879487858724E026879787808B33
:100F100025E0218B928B838B86E0848BCF010E940E
:100F200094040E94550060E670E086E890E00E941C
:100F3000CD0260B170E080E090E00E944008AB011B
:100F4000BC0186E890E00E945C0741E061E086E831
:100F500090E00E94660467E670E086E890E00E94F8
:100F6000CD0261B1637070E080E090E00E944008C3
:100F7000AB01BC0186E890E00E945C072FEF89E698
:100F800098E1215080409040E1F700C000001ABA7B
:100F900017BAD4E9B09BFECF86E890E00E945C04CB
:100FA000C6B3CE7F6FE670E086E890E00E94CD0287
:100FB00069B370E080E090E00E944008AB01BC01A2
:100FC00086E890E00E945C0721E041E06AE770E07B
:100FD00086E890E00E947B046C2F70E080E090E057
:100FE0000E944008AB01BC0186E890E00E945C07CB
:100FF0008C2F880F0E947C0089B30E949900D6BF75
:101000002FEF89E698E1215080409040E1F700C041
:101010000000C0CF86E890E00E94F40008950E948E
:10102000830888F09F5798F0B92F9927B751B0F0EF
:10103000E1F0660F771F881F991F1AF0BA95C9F75C
:1010400014C0B13091F00E949D08B1E008950C9455
:101050009D08672F782F8827B85F39F0B93FCCF308
:10106000869577956795B395D9F73EF490958095D9
:10107000709561957F4F8F4F9F4F0895E89409C0F9
:1010800097FB3EF490958095709561957F4F8F4FBB
:101090009F4F9923A9F0F92F96E9BB279395F695D1
:1010A000879577956795B795F111F8CFFAF4BB0F4F
:1010B00011F460FF1BC06F5F7F4F8F4F9F4F16C0B3
:1010C000882311F096E911C0772321F09EE8872F3D
:1010D000762F05C0662371F096E8862F70E060E0F9
:1010E0002AF09A95660F771F881FDAF7880F969572
:1010F000879597F9089557FD9058440F551F59F05B
:101100005F3F71F04795880F97FB991F61F09F3FF4
:1011100079F087950895121613061406551FF2CF1D
:101120004695F1DF08C0161617061806991FF1CF6D
:1011300086957105610508940895E894BB27662794
:101140007727CB0197F90895A1E21A2EAA1BBB1BA2
:10115000FD010DC0AA1FBB1FEE1FFF1FA217B30783
:10116000E407F50720F0A21BB30BE40BF50B661F99
:10117000771F881F991F1A9469F76095709580955D
:1011800090959B01AC01BD01CF010895EE0FFF1FAB
:101190000590F491E02D09940E94D708A59F900D29
:1011A000B49F900DA49F800D911D11240895A29FBE
:1011B000B001B39FC001A39F700D811D1124911D2B
:1011C000B29F700D811D1124911D0895F894FFCFD9
:1011D00054574252203A002054575053203A00505E
:1011E0004F5254206973203A2000414444524553E1
:0611F00053203A2000002C
:00000001FF
