S01A00004C45442D4932432D4D617374657220432B2B2E73726563F8
S11300000C942A000C943C000C943C000C943C008E
S11300100C943C000C943C000C943C000C943C006C
S11300200C943C000C943C000C943C000C943C005C
S11300300C943C000C943C000C943C000C943C004C
S11300400C943C000C943C000C943C000C943C003C
S11300500C943C0011241FBECFE5D8E0DEBFCDBF19
S113006020E0A0E6B0E001C01D92A136B207E1F79E
S11300700E9476000C9496000C94000016BE94EA3C
S113008096BF06B607FEFDCF91B1987F983079F4FC
S113009083B984E886BF06B607FEFDCF91B1987F89
S11300A0983139F081E0903429F480E0089581E0BA
S11300B0089580E0089583B984E886BF06B607FEF4
S11300C0FDCF91B1987F81E0983209F480E00895E2
S11300D084EC86BF06B607FEFDCF83B1089584E89D
S11300E086BF06B607FEFDCF83B1089580E280B9CE
S11300F01ABA17BAC4E986B38130E9F780E20E94DC
S11301003E0089B30E945B00C6BF8FE19EE4019765
S1130110F1F700C0000081E20E943E000E946800E6
S1130120809360000E946F00C6BFE5CFF894FFCFB4
S9030000FC
