:100000000C94D3000C94FB000C94FB000C94FB00AC
:100010000C94FB000C94FB000C94FB000C94FB0074
:100020000C94FB000C94FB000C94FB000C94FB0064
:100030000C94FB000C94FB000C94FB000C94FB0054
:100040000C94FB000C94FB000C94FB000C94FB0044
:100050000C94FB00CE08D708D708D708D708D708D4
:10006000D708D708D708D708D708D708D708D70898
:10007000D708D708D708D708D708D708D708D70888
:10008000D708D708D708D708D708D708D708A708A8
:100090001D084108D708B708D708D708D708D708D8
:1000A000D708D708D708D708D708D708D708D70858
:1000B000C308D7086D08D708D7088908D708D70814
:1000C000D708D708D708D708D708D708D708970878
:1000D0001D082808D708B708D708D708D708D708B1
:1000E000D708D708D708D708D708D708D708D70818
:1000F000C308D7085F08D708D7087B08CE08D708F9
:10010000D708D708D708D708D708D708D708D708F7
:10011000D708D708D708D708D708D708D708D708E7
:10012000D708D708D708D708D708D708D708D708D7
:10013000D708D708D708E0081D084008D708B7082F
:10014000D708D708D708D708D708D708D708D708B7
:10015000D708D708D708D708C308D7086C08D70826
:10016000D7088808D708D708D708D708D708D708E6
:10017000D708D708D70896081D082708D708B70852
:10018000D708D708D708D708D708D708D708D70877
:10019000D708D708D708D708C308D7085E08D708F4
:1001A000D7087A087C0911241FBECFE5D8E0DEBF4E
:1001B000CDBF10E0A0E6B0E0E4E8F6E102C00590B3
:1001C0000D92A636B107D9F720E0A6E6B0E001C04F
:1001D0001D92AD37B207E1F710E0C3EDD0E004C0E7
:1001E0002197FE010E943A0BC23DD107C9F70E9438
:1001F00007090C94400B0C94000016BE94EA96BFBD
:1002000006B607FEFDCF91B1987F983079F483B997
:1002100084E886BF06B607FEFDCF91B1987F98317E
:1002200039F081E0903429F480E0089581E0089568
:1002300080E0089583B984E886BF06B607FEFDCF47
:1002400091B1987F81E0983209F480E0089584ECC0
:1002500086BF06B607FEFDCF83B1089584E886BF4A
:1002600006B607FEFDCF83B10895FC019BE19083A4
:100270008AE1818312829383848321E0258396839C
:10028000878322E020879187828723E023879487D2
:10029000858724E026879787808B25E0218B928BAA
:1002A000838B86E0848B0895FC0164FD12C0A185D8
:1002B000B0E090962C91909781E090E0038402C08A
:1002C000880F991F0A94E2F78095822390968C9369
:1002D00010C0A185B0E090962C91909781E090E0BD
:1002E000038402C0880F991F0A94E2F7822B90962C
:1002F0008C9365FD12C0A485B0E090962C919097E8
:1003000081E090E0068402C0880F991F0A94E2F70A
:100310008095822390968C9310C0A485B0E090962F
:100320002C91909781E090E0068402C0880F991F7D
:100330000A94E2F7822B90968C9366FD12C0A785F3
:10034000B0E090962C91909781E090E0018802C0F7
:10035000880F991F0A94E2F78095822390968C93D8
:1003600010C0A785B0E090962C91909781E090E026
:10037000018802C0880F991F0A94E2F7822B909699
:100380008C93662394F0A289B0E090962C9190977C
:1003900081E090E0048802C0880F991F0A94E2F778
:1003A0008095822390968C9310C0A289B0E090969D
:1003B0002C91909781E090E0048802C0880F991FEB
:1003C0000A94E2F7822B90968C93A081B0E09096ED
:1003D0004C91909781E090E09C01028002C0220F36
:1003E000331F0A94E2F7242B90962C93A681B0E059
:1003F00090964C9190979C01008402C0220F331F6D
:100400000A94E2F7242B90962C93AFECB7E0119767
:10041000F1F700C00000A681B0E090963C91909763
:10042000AC01008402C0440F551F0A94E2F7242F48
:100430002095232390962C93A081B0E090962C9148
:100440009097028002C0880F991F0A94E2F7809566
:10045000822390968C938FEC97E00197F1F700C080
:10046000000060FD12C0A185B0E090962C9190979D
:1004700081E090E0038402C0880F991F0A94E2F79C
:100480008095822390968C9310C0A185B0E09096C1
:100490002C91909781E090E0038402C0880F991F0F
:1004A0000A94E2F7822B90968C9361FD12C0A4858A
:1004B000B0E090962C91909781E090E0068402C085
:1004C000880F991F0A94E2F78095822390968C9367
:1004D00010C0A485B0E090962C91909781E090E0B8
:1004E000068402C0880F991F0A94E2F7822B909627
:1004F0008C9362FD12C0A785B0E090962C919097E6
:1005000081E090E0018802C0880F991F0A94E2F709
:100510008095822390968C9310C0A785B0E090962A
:100520002C91909781E090E0018802C0880F991F7C
:100530000A94E2F7822B90968C9363FD12C0A289F5
:10054000B0E090962C91909781E090E0048802C0F2
:10055000880F991F0A94E2F78095822390968C93D6
:1005600010C0A289B0E090962C91909781E090E025
:10057000048802C0880F991F0A94E2F7822B909694
:100580008C93A081B0E090964C91909781E090E0A0
:100590009C01028002C0220F331F0A94E2F7242B31
:1005A00090962C93A681B0E090964C9190979C01E8
:1005B000008402C0220F331F0A94E2F7242B909686
:1005C0002C93AFECB7E01197F1F700C00000A681C3
:1005D000B0E090963C919097AC01008402C0440F2B
:1005E000551F0A94E2F7242F2095232390962C93ED
:1005F000A081B0E090962C919097028002C0880F65
:10060000991F0A94E2F78095822390968C938FEC41
:1006100097E00197F1F700C0000008950F931F9332
:10062000CF93DF93EB016881662341F08C01219623
:10063000C8010E94540169916111FACFDF91CF91F5
:100640001F910F910895FC0164FD12C0A185B0E0D7
:1006500090962C91909781E090E0038402C0880FDF
:10066000991F0A94E2F78095822390968C9310C08C
:10067000A185B0E090962C91909781E090E0038462
:1006800002C0880F991F0A94E2F7822B90968C93F0
:1006900065FD12C0A485B0E090962C91909781E002
:1006A00090E0068402C0880F991F0A94E2F78095B3
:1006B000822390968C9310C0A485B0E090962C91E4
:1006C000909781E090E0068402C0880F991F0A94F9
:1006D000E2F7822B90968C9366FD12C0A785B0E05E
:1006E00090962C91909781E090E0018802C0880F4D
:1006F000991F0A94E2F78095822390968C9310C0FC
:10070000A785B0E090962C91909781E090E00188C9
:1007100002C0880F991F0A94E2F7822B90968C935F
:10072000662394F0A289B0E090962C91909781E096
:1007300090E0048802C0880F991F0A94E2F7809520
:10074000822390968C9310C0A289B0E090962C9151
:10075000909781E090E0048802C0880F991F0A9466
:10076000E2F7822B90968C93A681B0E090964C9104
:10077000909781E090E09C01008402C0220F331F1B
:100780000A94E2F7242B90962C93AFECB7E01197E4
:10079000F1F700C00000A681B0E090962C919097F0
:1007A000008402C0880F991F0A94E2F78095822383
:1007B00090968C938FEC97E00197F1F700C00000C2
:1007C00060FD12C0A185B0E090962C91909781E0D9
:1007D00090E0038402C0880F991F0A94E2F7809585
:1007E000822390968C9310C0A185B0E090962C91B6
:1007F000909781E090E0038402C0880F991F0A94CB
:10080000E2F7822B90968C9361FD12C0A485B0E034
:1008100090962C91909781E090E0068402C0880F1A
:10082000991F0A94E2F78095822390968C9310C0CA
:10083000A485B0E090962C91909781E090E006849A
:1008400002C0880F991F0A94E2F7822B90968C932E
:1008500062FD12C0A785B0E090962C91909781E040
:1008600090E0018802C0880F991F0A94E2F78095F2
:10087000822390968C9310C0A785B0E090962C911F
:10088000909781E090E0018802C0880F991F0A9438
:10089000E2F7822B90968C9363FD12C0A289B0E0A0
:1008A00090962C91909781E090E0048802C0880F88
:1008B000991F0A94E2F78095822390968C9310C03A
:1008C000A289B0E090962C91909781E090E0048806
:1008D00002C0880F991F0A94E2F7822B90968C939E
:1008E000A681B0E090964C91909781E090E09C01B9
:1008F000008402C0220F331F0A94E2F7242B909643
:100900002C93AFECB7E01197F1F700C00000A6817F
:10091000B0E090962C919097008402C0880F991FA8
:100920000A94E2F78095822390968C938FEC97E05F
:100930000197F1F700C00000089561E00E942303D1
:100940008FEC97E00197F1F700C000000895423066
:1009500031F0433031F0413029F4605C03C06C5E0B
:1009600001C06C5A60680E9423038FEC97E00197E6
:10097000F1F700C000000895CF93DF93EC018FE200
:1009800095E70197F1F700C00000E985F0E030A19C
:1009900081E090E0AC010B8402C0440F551F0A9423
:1009A000E2F7242F2095232320A3EC85F0E030A14B
:1009B000AC010E8402C0440F551F0A94E2F7242FA5
:1009C0002095232320A3EF85F0E030A1AC01098816
:1009D00002C0440F551F0A94E2F7242F20952323C9
:1009E00020A3EA89F0E030A1AC010C8802C0440FDA
:1009F000551F0A94E2F7242F2095232320A3EE818C
:100A0000F0E030A1AC01088402C0440F551F0A94E5
:100A1000E2F7242F2095232320A3EA85F0E040A1CC
:100A20009C010B8402C0220F331F0A94E2F7242B8F
:100A300020A3ED85F0E040A19C010E8402C0220FAE
:100A4000331F0A94E2F7242B20A3E889F0E040A1A9
:100A50009C01098802C0220F331F0A94E2F7242B5D
:100A600020A3EB89F0E040A19C010C8802C0220F7A
:100A7000331F0A94E2F7242B20A3EF81F0E040A17A
:100A80009C01088402C0220F331F0A94E2F7242B32
:100A900020A3E981F0E040A19C010A8002C0220F5E
:100AA000331F0A94E2F7242B20A3EC81F0E040A14D
:100AB0009C010D8002C0220F331F0A94E2F7242B01
:100AC00020A3E985F0E040A19C010B8402C0220F25
:100AD000331F0A94E2F7242B20A3EC85F0E040A119
:100AE0009C010E8402C0220F331F0A94E2F7242BCC
:100AF00020A3EF85F0E030A1AC01098802C0440FCB
:100B0000551F0A94E2F7242F2095232320A3EA8976
:100B1000F0E030A1AC010C8802C0440F551F0A94CC
:100B2000E2F7242F2095232320A3EE81F0E040A1BB
:100B30009C01088402C0220F331F0A94E2F7242B81
:100B400020A3E881F0E030A1AC010A8002C0440F8C
:100B5000551F0A94E2F7242F2095232320A3EB812D
:100B6000F0E030A1AC010D8002C0440F551F0A9483
:100B7000E2F7242F2095232320A3EFECF7E0319711
:100B8000F1F700C00000EE81F0E030A1AC01088474
:100B900002C0440F551F0A94E2F7242F2095232307
:100BA00020A3EFECF7E03197F1F700C00000E985F2
:100BB000F0E040A19C010B8402C0220F331F0A9475
:100BC000E2F7242B20A3EC85F0E040A19C010E84E9
:100BD00002C0220F331F0A94E2F7242B20A3EF85D3
:100BE000F0E030A1AC01098802C0440F551F0A94FF
:100BF000E2F7242F2095232320A3EA89F0E030A1F7
:100C0000AC010C8802C0440F551F0A94E2F7242F50
:100C10002095232320A3EE81F0E040A19C010884CD
:100C200002C0220F331F0A94E2F7242B20A3E8818D
:100C3000F0E030A1AC010A8002C0440F551F0A94B5
:100C4000E2F7242F2095232320A3EB81F0E030A1AD
:100C5000AC010D8002C0440F551F0A94E2F7242F07
:100C60002095232320A3EFECF7E03197F1F700C0A4
:100C70000000EE81F0E030A1AC01088402C0440F16
:100C8000551F0A94E2F7242F2095232320A3EFEC8D
:100C9000F7E03197F1F700C00000E985F0E030A1FE
:100CA000AC010B8402C0440F551F0A94E2F7242FB5
:100CB0002095232320A3EC85F0E040A19C010E8425
:100CC00002C0220F331F0A94E2F7242B20A3EF85E2
:100CD000F0E030A1AC01098802C0440F551F0A940E
:100CE000E2F7242F2095232320A3EA89F0E030A106
:100CF000AC010C8802C0440F551F0A94E2F7242F60
:100D00002095232320A3EE81F0E040A19C010884DC
:100D100002C0220F331F0A94E2F7242B20A3E8819C
:100D2000F0E030A1AC010A8002C0440F551F0A94C4
:100D3000E2F7242F2095232320A3EB81F0E030A1BC
:100D4000AC010D8002C0440F551F0A94E2F7242F16
:100D50002095232320A3EFECF7E03197F1F700C0B3
:100D60000000EE81F0E020A1088402C0880F991FE6
:100D70000A94E2F78095822380A38FEC97E0019795
:100D8000F1F700C0000068E2CE010E9423036CE08E
:100D9000CE010E942303CE010E949D04DF91CF91DA
:100DA00008952F923F924F925F926F927F928F920F
:100DB0009F92AF92BF92CF92DF92EF92FF920F93EA
:100DC0001F93CF93DF93CDB7DEB72A970FB6F89472
:100DD000DEBF0FBECDBF5C01662E69017A0122E045
:100DE000621326C0002309F476C088248394912CD2
:100DF00011E0712C8FEF800FF40102C0EE0FFF1F86
:100E00008A95E2F7CF01092E000CAA0BBB0B8C21AF
:100E10009D21AE21BF21612F892B8A2B8B2B09F4B9
:100E2000672D605DC5010E945401015019F753C040
:100E3000C114D104E104F10419F0011111C04BC037
:100E4000002309F448C010E003C01A3009F443C07D
:100E500060E3C5010E9454011F5F0113F6CF3BC040
:100E60009E012F5F3F4F490110E0262E312C412C6F
:100E7000512CC114D104E104F10489F07C2CC70188
:100E8000B601A20191010E94180BC22ED32EE42EAE
:100E9000F52E629E70181124F401708208C00B3088
:100EA00020F01123C1F0012F08C0F40110821F5F50
:100EB000FFEF8F1A9F0A0113DCCFFE01E00FF11D37
:100EC00060816A3010F0695C01C0605DC5010E94FC
:100ED0005401015091F72A960FB6F894DEBF0FBE69
:100EE000CDBFDF91CF911F910F91FF90EF90DF90D9
:100EF000CF90BF90AF909F908F907F906F905F90BA
:100F00004F903F902F9008958F929F92AF92BF92F3
:100F1000CF92DF92EF92FF920F93CF93DF93EC018A
:100F20006A017B01CB01BA010E94EE094B015C0111
:100F30000FEF9B01AC016AE0CE010E94D1066EE288
:100F4000CE010E945401C501B4010E941D0A9B01FB
:100F5000AC01C701B6010E94810920E034E244E7F8
:100F600059E40E94AB0A0E94EE099B01AC016AE0C1
:100F7000CE010E94D106DF91CF910F91FF90EF90AB
:100F8000DF90CF90BF90AF909F908F9008953F9249
:100F90004F925F926F927F928F929F92AF92BF9289
:100FA000CF92DF92EF92FF920F931F93CF93DF9335
:100FB000CDB7DEB7EC88FD880E891F89498D688D15
:100FC000C7010E94A7045E018AE1A80EB11CD801E6
:100FD0006C91662309F409C188248A9468943324A7
:100FE00033F8912C653209F0DEC06801BFEFCB1AEF
:100FF000DB0AD8011196EC91119780ED8E0F8A30A3
:1010000008F0E8C01296092D000F802F880F880F76
:10101000080F00530E0F6D01ED9180ED8E0F8A3099
:1010200098F38E2F90E0FC01B597E435F10508F0B8
:10103000BEC0E65DFF4F0C943A0B85010E5F1F4F5B
:10104000F5016081C7010E9454015801B0C0082D0C
:10105000F50160807180F2E0AF0EB11C77203CF4A6
:101060007194619471086DE2C7010E94540193016B
:10107000770C440B550B6AE0C7010E94D10697C05C
:10108000082DF501408051806280738084E0A80EB5
:10109000B11C772064F47094609450944094411C87
:1010A000511C611C711C6DE2C7010E945401A30117
:1010B00092016AE0C7010E94D10679C0082DF501AE
:1010C00020813181A2E0AA0EB11C40E050E06AE02C
:1010D000C7010E94D1066BC0082DF5012081318126
:1010E00042815381B4E0AB0EB11C6AE0C7010E949B
:1010F000D1065DC0082DF50120813181E2E0AE0E00
:10110000B11C40E050E060E1C7010E94D1064FC031
:10111000082DF5012081318142815381F4E0AF0E29
:10112000B11C60E1C7010E94D10641C0082DF50144
:101130002081318182E0A80EB11C083008F0032D17
:1011400040E050E062E0C7010E94D10630C0F501E6
:101150002081318142815381A4E0AA0EB11C0F3F4E
:1011600009F400E262E0C7010E94D10620C0F50147
:101170004081518162817381B4E0AB0EB11CC70123
:101180000E94840714C085010E5F1F4FF501608126
:101190007181C7010E940E03580109C065E2C701B1
:1011A0000E94540104C0C7010E94540168018601D5
:1011B0000F5F1F4FD60111966C91611113CF15C0AF
:1011C000F5012081318142815381B4E0AB0EB11C25
:1011D00000E2C8CF8E2F90E0FC01B597E435F10511
:1011E00030F7E258FF4F0C943A0BDF91CF911F91EB
:1011F0000F91FF90EF90DF90CF90BF90AF909F90B6
:101200008F907F906F905F904F903F90089580E215
:1012100080B91ABA17BAE6E6F0E092E1908381E16C
:10122000818312829383848321E02583968387833D
:1012300022E020879187828723E023879487858710
:1012400024E026879787808B25E0218B928B838BE8
:1012500086E0848B42E060E1CF010E94BC0400E69E
:1012600010E0C4E986E690E00E949D041F921F9260
:101270001F930F9386E690E09F938F930E94C7077A
:1012800086B30F900F900F900F900F900F908130BA
:1012900049F780E20E94FD0089B30E941A01C6BF8F
:1012A0008FE19EE40197F1F700C0000081E20E9407
:1012B000FD000E94270180937C0086E690E00E945A
:1012C0009D0460917C0086E690E00E94540169B321
:1012D00086E690E00E9454010E942E01C6BF9FEF57
:1012E00020E782E0915020408040E1F700C00000FC
:1012F00086B3813071F2B6CF86E690E00E94350168
:1013000008955058BB27AA270E9499090C94710A86
:101310000E94630A38F00E946A0A20F039F49F3F65
:1013200019F426F40C94600A0EF4E095E7FB0C9493
:101330005A0AE92F0E94820A58F3BA176207730704
:101340008407950720F079F4A6F50C94A40A0EF40E
:10135000E0950B2EBA2FA02D0B01B90190010C01C5
:10136000CA01A0011124FF27591B99F0593F50F4DD
:10137000503E68F11A16F040A22F232F342F442735
:10138000585FF3CF469537952795A795F04053952D
:10139000C9F77EF41F16BA0B620B730B840BBAF0FD
:1013A0009150A1F0FF0FBB1F661F771F881FC2F768
:1013B0000EC0BA0F621F731F841F48F4879577957C
:1013C0006795B795F7959E3F08F0B0CF9395880F36
:1013D00008F09927EE0F9795879508950E948A0A3D
:1013E00088F09F5798F0B92F9927B751B0F0E1F0E6
:1013F000660F771F881F991F1AF0BA95C9F714C096
:10140000B13091F00E94A40AB1E008950C94A40AAE
:10141000672F782F8827B85F39F0B93FCCF38695CE
:1014200077956795B395D9F73EF49095809570952B
:1014300061957F4F8F4F9F4F0895E89409C097FBA8
:101440003EF490958095709561957F4F8F4F9F4F9B
:101450009923A9F0F92F96E9BB279395F6958795DF
:1014600077956795B795F111F8CFFAF4BB0F11F4A2
:1014700060FF1BC06F5F7F4F8F4F9F4F16C0882349
:1014800011F096E911C0772321F09EE8872F762F7F
:1014900005C0662371F096E8862F70E060E02AF0C0
:1014A0009A95660F771F881FDAF7880F96958795AC
:1014B00097F9089597F99F6780E870E060E00895D4
:1014C0009FEF80EC089500240A941616170618065C
:1014D0000906089500240A94121613061406050638
:1014E0000895092E0394000C11F4882352F0BB0FC9
:1014F00040F4BF2B11F460FF04C06F5F7F4F8F4F2C
:101500009F4F089557FD9058440F551F59F05F3F66
:1015100071F04795880F97FB991F61F09F3F79F015
:1015200087950895121613061406551FF2CF469597
:10153000F1DF08C0161617061806991FF1CF869519
:101540007105610508940895E894BB2766277727FD
:10155000CB0197F908950E94BE0A0C94710A0E946B
:10156000630A38F00E946A0A20F0952311F00C9467
:101570005A0A0C94600A11240C94A50A0E94820A4B
:1015800070F3959FC1F3950F50E0551F629FF001D6
:10159000729FBB27F00DB11D639FAA27F00DB11DEF
:1015A000AA1F649F6627B00DA11D661F829F222778
:1015B000B00DA11D621F739FB00DA11D621F839FFF
:1015C000A00D611D221F749F3327A00D611D231FD5
:1015D000849F600D211D822F762F6A2F11249F5723
:1015E00050409AF0F1F088234AF0EE0FFF1FBB1F26
:1015F000661F771F881F91505040A9F79E3F5105E5
:1016000080F00C945A0A0C94A50A5F3FE4F3983ECC
:10161000D4F3869577956795B795F795E7959F5F8E
:10162000C1F7FE2B880F911D9695879597F9089520
:10163000A1E21A2EAA1BBB1BFD010DC0AA1FBB1FD6
:10164000EE1FFF1FA217B307E407F50720F0A21B48
:10165000B30BE40BF50B661F771F881F991F1A94B5
:1016600069F760957095809590959B01AC01BD01DF
:10167000CF010895EE0FFF1F0590F491E02D09941E
:04168000F894FFCF0C
:06168400746573740000A0
:00000001FF
